:100000000528FF3FFF3FFF3F0F2883160130860082
:1000100081130113831290308B0063000D282D2073
:1000200006181D2022209003031922200000061C20
:100030001328100825208600352000302520860052
:100040008B1009000630900008008207013411343B
:1000500083349334C734D734EF3464309100920042
:10006000920B3028910B2F28080028309100F9308E
:100070009200FA3093000000930B3B28920B392832
:10008000910B37280800FF3FFF3FFF3FFF3FFF3F37
:08400000FF3FFF3FFF3FFF3FC0
:02400E00F13F80
:00000001FF